:100000000C9494000C9451070C942A070C94BC0097
:100010000C94BC000C94BC000C94BC000C94BC0070
:100020000C94BC000C94BC000C94BC000C94BC0060
:100030000C94BC000C94BC000C94BC000C94BC0050
:100040000C94E0060C94BC000C94BC000C94BC0016
:100050000C94BC000C94BC000C94BC000C94BC0030
:100060000C94BC000C94BC0008000000BE92244913
:10007000123EABAAAA2ABECDCCCC4C3E00000080DA
:10008000BEABAAAAAA3E00000000BF000000803F4D
:100090000000000000084178D3BB4387D1133D190D
:1000A0000E3CC3BD4282AD2B3E68EC8276BED98F3A
:1000B000E1A93E4C80EFFFBE01C4FF7F3F0000007E
:1000C000000000000000240027002A0000000000BB
:1000D000250028002B000000000023002600290036
:1000E00004040404040404040202020202020303DE
:1000F00003030303020203010204081020408001ED
:100100000204081020010204081020408040000072
:1001100000090003020000040508000000000000C0
:10012000000000000000911311241FBECFEFD8E0A3
:10013000DEBFCDBF14E0A0E0B1E0E6EEFEE202C01B
:1001400005900D92A635B107D9F725E0A6E5B4E0F4
:1001500001C01D92A035B207E1F710E0C4E9D0E07C
:1001600004C02197FE010E946B17C339D107C9F75C
:100170000E9478070C9471170C94000080918504FC
:100180008F5F8093850408958230D8F4E82FF0E0E3
:10019000EE0FFF1FE45CFE4F2EEB30E03183208337
:1001A000813041F0809169008C7F8260809369008A
:1001B000E89A089580916900837F88608093690040
:1001C000E99A0895843081F028F48230E9F0833090
:1001D000F9F00895883071F0893091F08530B9F4E4
:1001E000809180008F7D03C0809180008F77809305
:1001F000800008958091B0008F778093B0000895BB
:100200008091B0008F7DF9CF84B58F7784BD08953C
:1002100084B58F7DFBCFCF93DF93282F30E0F9019A
:10022000E25FFE4F8491F901E950FF4FD491F9014B
:10023000E052FF4FC491CC23A1F081110E94E20053
:10024000EC2FF0E0EE0FFF1FEA52FF4FA591B491A3
:10025000EC91ED2381E090E009F480E0DF91CF9113
:10026000089580E090E0FACF1F93CF93DF93282F7B
:1002700030E0F901E25FFE4F8491F901E950FF4F50
:10028000D491F901E052FF4FC491CC23A9F0162F6D
:1002900081110E94E200EC2FF0E0EE0FFF1FE4530B
:1002A000FF4FA591B4918FB7F894EC91111108C04C
:1002B000D095DE23DC938FBFDF91CF911F910895FE
:1002C000DE2BF8CFCF93DF9390E0FC01E950FF4F96
:1002D000249180529F4FFC0184918823C9F090E0C3
:1002E000880F991FFC01EE53FF4FA591B491FC01BB
:1002F000E453FF4FC591D49161110DC09FB7F8949D
:100300008C91209582238C938881282328839FBFFA
:10031000DF91CF910895623051F49FB7F8943C91EA
:10032000822F809583238C93E8812E2BEFCF8FB77C
:10033000F894EC912E2B2C938FBFEACF883020F0CD
:100340008D3008F48DE08E508770806480937C003F
:1003500080917A00806480937A0080917A0086FD93
:10036000FCCF809178009091790008950000000002
:100370008330910528F0880F991F05970197F1F7B1
:1003800008953FB7F8948091340590913505A09178
:100390003605B091370526B5A89B05C02F3F19F04B
:1003A0000196A11DB11D3FBFBA2FA92F982F8827F5
:1003B000BC01CD01620F711D811D911D43E0660FCF
:1003C000771F881F991F4A95D1F708958F929F92A2
:1003D000AF92BF92CF92DF92EF92FF924B015C01FE
:1003E0000E94C1016B017C010E94C1016C197D0951
:1003F0008E099F09683E734081059105A8F321E0AD
:10040000821A9108A108B10888EEC80E83E0D81EB0
:10041000E11CF11C81149104A104B10429F7FF909F
:10042000EF90DF90CF90BF90AF909F908F90089506
:100430000895AF92BF92CF92DF92EF92FF920F9307
:100440001F93CF93DF936C017B018B01040F151F6A
:10045000EB015E01AE18BF08C017D10759F06991D2
:10046000D601ED91FC910190F081E02DC601099536
:10047000892B79F7C501DF91CF911F910F91FF90E3
:10048000EF90DF90CF90BF90AF900895CF93DF9320
:10049000EC0160E08E810E94340181E090E00E94D6
:1004A000B60161E08E810E94340181E090E00E94FB
:1004B000B60160E08E810E94340184E690E0DF9115
:1004C000CF910C94B601CF92DF92EF92FF920F93EF
:1004D0001F93CF93DF936C017C0187E0E80EF11C42
:1004E000D0E0C0E0062F10E0B8010C2E02C07595D8
:1004F00067950A94E2F76170F70181917F010E948C
:1005000034012196C430D10579F7C601DF91CF912E
:100510001F910F91FF90EF90DF90CF900C944602C7
:10052000CF92DF92EF92FF920F931F93CF93DF93BF
:10053000EC01F62E642F8C810E9434018D818F3F57
:1005400019F060E00E9434010F2D10E08F8584FFC8
:1005500025C06E0187E0C80ED11CF12CE12CB8013A
:100560000E2C02C0759567950A94E2F76170F6014A
:1005700081916F010E943401FFEFEF1AFF0A88E0BA
:10058000E816F10461F7CE01DF91CF911F910F9131
:10059000FF90EF90DF90CF900C944602B80184E07A
:1005A000759567958A95E1F7CE010E9463026F2DDC
:1005B000CE01DF91CF911F910F91FF90EF90DF90CF
:1005C000CF900C94630240E0682F88E395E00C9490
:1005D000900281E00E94E30280ED97E00C94B60166
:1005E000CF93DF93823029F49091470598609093E0
:1005F000470580934B0510924C0580E480934D0590
:1006000080E180934E0580E580934F0561E0809105
:100610003C050E94620180913D058F3F19F061E029
:100620000E94620161E080913E050E946201C8E380
:10063000D5E09E01285335408091470584FD0BC0CD
:1006400084E090E021962817390744F461E08E8118
:100650000E946201EECF88E090E0F4CF80E593EC59
:100660000E94B60160E080913C050E94340160E088
:1006700080913E050E94340180913D058F3F19F025
:1006800060E00E9434018091470584FD35C063E03D
:1006900088E395E00E94630284E991E10E94B6013B
:1006A00063E088E395E00E94630284E991E10E949F
:1006B000B60163E088E395E00E94630286E990E07A
:1006C0000E94B60162E088E395E00E946302809197
:1006D000470580620E94E30284E0809348058CE035
:1006E0000E94E3020E94E90282E08093490586E0CD
:1006F000DF91CF910C94E30280620E94E30284E9CF
:1007000091E10E94B6018091470580620E94E30258
:1007100086E990E00E94B6018091470580620E94C0
:10072000E302D5CF90914B05691710F06FEF690F79
:10073000E62FF0E0E85CFA4F9489890F80680C940A
:10074000E30241E00E94900281E090E008950F935F
:100750001F93CF93DF938B0128E0829FC001112468
:1007600080640E94E302E801085F1F4F699188E3FB
:1007700095E00E94A103C017D107C1F7DF91CF9187
:100780001F910F91089541E0682F88E395E00E9442
:10079000900281E090E00895089590E080E008954F
:1007A000FC0101900020E9F73197AF01481B590B7C
:1007B000BC0188E395E00C9419028F929F92AF924E
:1007C000BF920F931F93CF93DF93CDB7DEB7A1975F
:1007D0000FB6F894DEBF0FBECDBF19A2423008F4A9
:1007E0004AE08E010F5D1F4F842E912CB12CA12C5D
:1007F000A50194010E944917E62FB901CA01EA3008
:10080000F4F4E05DD801EE938D01232B242B252BEE
:1008100079F790E080E0109719F0CD010E94D003A5
:10082000A1960FB6F894DEBF0FBECDBFDF91CF917A
:100830001F910F91BF90AF909F908F900895E95CAA
:10084000E1CF0C94D0034F925F926F927F928F9280
:100850009F92AF92BF92CF92DF92EF92FF92CF938F
:10086000DF936B017C01942EAC019B010E940F175A
:10087000882391F081E591E0DF91CF91FF90EF9097
:10088000DF90CF90BF90AF909F908F907F906F90B0
:100890005F904F900C94D00326013701E89477F8CD
:1008A0002FEF3FEF4FE75FE7C301B2010E940F1741
:1008B00081110DC02FEF3FEF4FE75FE7C301B2019A
:1008C0000E94EE1418161CF485E591E0D5CF2FEFA9
:1008D0003FEF4FE75FE4C701B6010E944D161816BF
:1008E0001CF489E591E0C8CF2FEF3FEF4FE75FECB5
:1008F000C701B6010E94EE1487FDF3CF20E030E07F
:10090000A901C701B6010E94EE14B12CA12C87FFEA
:1009100008C08DE20E94C3035C01F7FAF094F7F877
:10092000F094C92D60E070E080E09FE3D0E020E02B
:1009300030E040E251E40E94F31421E02D0FD1E0B9
:100940002915A8F3A70196010E9482142B013C01EE
:100950000E946C156B017C010E949B159B01AC01F0
:10096000C301B2010E9481142B013C014AE0C7017E
:10097000B6010E94DD037C018EE20E94C303E80EF3
:10098000F91EEA0CFB1CC15018F120E030E040E2F7
:1009900051E4C301B2010E94A2162B013C010E9446
:1009A0006C154B01B12CA12C4AE0C501B4010E9489
:1009B000DD03E80EF91EC501B4010E949B159B01E1
:1009C000AC01C301B2010E9481142B013C01DBCFB9
:1009D000C701DF91CF91FF90EF90DF90CF90BF9054
:1009E000AF909F908F907F906F905F904F90089501
:1009F0002F923F924F925F926F927F928F929F922F
:100A0000AF92BF92CF92DF92EF92FF920F931F931C
:100A1000CF93DF93CDB7DEB728970FB6F894DEBF3C
:100A20000FBECDBF1C012DB73EB738872F83FC0109
:100A300080819181880F991F880F991F281B390B7E
:100A40000FB6F8943EBF0FBE2DBF8DB79EB701966F
:100A50009A83898320E030E040E854E4648575851A
:100A6000868597850E94A21620E030E040EA50E497
:100A70000E94F31426E636E646E65FE30E94A216DD
:100A80004B015C0110E000E0F101E080F1800E1507
:100A90001F050CF0A3C061E080850E9434010E9414
:100AA000C1012B013C01C12CD12C7601F1018285C1
:100AB0000E949E01BC01990F880B990B0E949D1505
:100AC000A50194010E94EE1487FF63C00E94C1013A
:100AD00064197509860997090E949B156B017C01B1
:100AE000F10162817381072E000C880B990B0E9423
:100AF0009D15A70196010E94EE1487FFD7CF0E9493
:100B0000C1016B837C838D839E83F10182850E946A
:100B10009E01BC01990F880B990B0E949D156B01DA
:100B20007C0126E636E646E65FE3C501B4010E9495
:100B3000F3149B01AC01C701B6010E94F3149B01A1
:100B4000AC0160E070E080E89FE30E9481140E94A5
:100B50005A166B017C01F7FAF094F7F8F0946B8168
:100B60007C8164197509072E000C880B990B0E9473
:100B70009D159B01AC01C701B6010E94F3149B01B6
:100B8000AC016DE87DE583E190E40E94F3146B0114
:100B90007C0160E0F10180850E9434018AE090E0F0
:100BA0000E94B60120E030E0A901C701B6010E9411
:100BB0004D16181684F4F801EE0FFF1FEE0FFF1FFD
:100BC00029813A81E20FF31FC082D182E282F3824F
:100BD0000F5F1F4F59CF01501109FACFB7010F2CEA
:100BE000000C880B990B0E949D15F1012481358121
:100BF000468157810E94A2160E9465152B018B0128
:100C0000000F111F000F111F29813A81020F131FBE
:100C10006201812C912C5401E418F508CE14DF04F4
:100C200084F4F80121913191419151918F01C501D5
:100C3000B4010E9482144B015C01FFEFCF1ADF0A5E
:100C4000EDCFE418F508B701FF0C880B990B0E9453
:100C50009D159B01AC01C501B4010E94F314F10183
:100C600020893189428953890E9481142F813885D6
:100C70000FB6F8943EBF0FBE2DBF28960FB6F8945E
:100C8000DEBF0FBECDBFDF91CF911F910F91FF90BF
:100C9000EF90DF90CF90BF90AF909F908F907F901C
:100CA0006F905F904F903F902F900895CF92DF927A
:100CB000EF92FF920F931F93CF93DF938C01C6E0C7
:100CC000D0E0C12CD12C7601C8010E94F8049B0110
:100CD000AC01C701B6010E9482146B017C0121970F
:100CE00099F7AC019B01F801608971898289938928
:100CF0000E94EE14881F8827881FDF91CF911F91D3
:100D00000F91FF90EF90DF90CF9008950C947314A3
:100D10009F92AF92BF92CF92DF92EF92FF920F938A
:100D20001F93CF93DF935C017B018B01D0E0C0E088
:100D3000F80191908F016501CC0EDD1EC6010E9465
:100D40006B14981621F0692DC6010E947314219628
:100D5000C430D10569F7C701DF91CF911F910F9181
:100D6000FF90EF90DF90CF90BF90AF909F9008954D
:100D7000CF92DF92EF92FF920F931F93CF93DF9367
:100D8000EB017B0124E0E20EF11C8B016C01C61A21
:100D9000D70AC601800F911F0E946B14F80181933E
:100DA0008F01EE15FF05A9F7CE01DF91CF911F91BD
:100DB0000F91FF90EF90DF90CF9008950C946B14FB
:100DC0001F920F920FB60F9211242F933F938F9380
:100DD0009F93AF93BF938091300590913105A0917F
:100DE0003205B091330530912F0526E0230F2D37C2
:100DF00068F129E8230F0396A11DB11D20932F054B
:100E00008093300590933105A0933205B09333055C
:100E10008091340590913505A0913605B091370544
:100E20000196A11DB11D8093340590933505A093C3
:100E30003605B0933705BF91AF919F918F913F9148
:100E40002F910F900FBE0F901F9018950296A11D25
:100E5000B11DD4CF1F920F920FB60F9211242F9372
:100E60003F934F935F936F937F938F939F93AF9332
:100E7000BF93EF93FF93E0913E01F0913F010995FD
:100E8000FF91EF91BF91AF919F918F917F916F9162
:100E90005F914F913F912F910F900FBE0F901F9038
:100EA00018951F920F920FB60F9211242F933F9314
:100EB0004F935F936F937F938F939F93AF93BF9362
:100EC000EF93FF93E0913C01F0913D010995FF9173
:100ED000EF91BF91AF919F918F917F916F915F91B2
:100EE0004F913F912F910F900FBE0F901F9018952B
:100EF000CF93DF9300D0CDB7DEB7789484B583600D
:100F000084BD85B5836085BD80916E0081608093CE
:100F10006E0082E0809381008091810081608093E7
:100F20008100809180008160809380008091B10079
:100F300084608093B1008091B00081608093B000A4
:100F400086E880937A001092C10060E08EE00E94F3
:100F5000620160E08FE00E94620160E086E00E9432
:100F6000620160E087E00E94620161E080E00E942F
:100F7000620161E083E10E94620161E081E00E9420
:100F8000620161E083E00E94620161E085E00E940D
:100F9000620161E084E00E94620161E086E00E94FB
:100FA000620161E080E10E94620190E080E00E94C5
:100FB000DE0690E0909339018093380185309105E9
:100FC0003CF02091360130913701281739075CF445
:100FD00085E090E0909339018093380165E090E0DE
:100FE00080E00E94860682E090E00E94DE0690E0AB
:100FF0009093CB048093CA0402974CF01092CB04D8
:101000001092CA0460E082E090E00E94860683E0CD
:1010100090E00E94DE0690E09093D1048093D0048B
:101020000A974CF01092D1041092D00460E083E053
:1010300090E00E94860662E371E084E090E00E9406
:10104000B8062AE037ED43E25CE36091320170912B
:10105000330180913401909135010E94EE1487FF95
:1010600012C080E090E0A0E8BFE38093320190934B
:101070003301A0933401B093350162E371E084E061
:1010800090E00E94880685E090E00E94DE0690E0F5
:101090009093CF048093CE040A974CF01092CF0423
:1010A0001092CE0460E085E090E00E948606E09118
:1010B000CE04F091CF04EE0FFF1FEA54FB4F0081E6
:1010C0001181109337010093360181E090E00E9476
:1010D000DE0690E09093CD048093CC04853091059A
:1010E0001CF0081719074CF41093CD040093CC049E
:1010F000602F81E090E00E9486066EE271E086E05B
:1011000090E00E94B8062AE037ED43E25CE360918C
:101110002E0170912F0180913001909131010E9438
:10112000EE1487FF12C080E090E0A0E8BFE3809358
:101130002E0190932F01A0933001B09331016EE204
:1011400071E086E090E00E9488061092850410927B
:101150005D0410925E0410925F041092600480910E
:10116000D0049091D10402970CF08EC262E082E02C
:101170000E94620161E086E00E94340182E00E94E8
:10118000F00260E271E080E00E94A70368E171E094
:1011900081E00E94A70360E171E082E00E94A70362
:1011A00068E071E083E00E94A70360E071E084E002
:1011B0000E94A7030E94E90260E080E00E9492037F
:1011C0008DE591E00E9421041092200510921F05E8
:1011D0008EE090E0909322058093210580E090E0DE
:1011E000A0EAB0E48093230590932405A0932505FD
:1011F000B093260585E090E090931805809317053D
:101200008AE090E090931A05809319058DEC9CEC90
:10121000ACE4BEE380931B0590931C05A0931D05D1
:10122000B0931E05109227051092280510922905EB
:1012300010922A050AE010E0C12CD12C76016AE058
:1012400070E080E090E00E94E60187E195E00E9476
:10125000F8049B01AC01C701B6010E9482146B0126
:101260007C010150110959F72DEC3CEC44E251E4AA
:101270000E94F31460932705709328058093290535
:1012800090932A0542E050E00E94230480E691E01A
:101290000E94210483E190E090930B0580930A055E
:1012A0008FE090E090930D0580930C0580E090E036
:1012B000A0EAB0E480930E0590930F05A09310056B
:1012C000B093110585E090E09093030580930205AB
:1012D0008AE090E090930505809304058DEC9CECEA
:1012E000ACE4BEE38093060590930705A093080540
:1012F000B09309051092120510921305109214056F
:10130000109215050AE010E0C12CD12C76016AE09C
:1013100070E080E090E00E94E60182E095E00E94AB
:10132000F8049B01AC01C701B6010E9482146B0155
:101330007C010150110959F72DEC3CEC44E251E4D9
:101340000E94F314609312057093130580931405A3
:101350009093150542E050E00E94230461E080E094
:101360000E94920384E691E00E94210481E090E0D3
:101370009093E1048093E00487E090E09093E3048D
:101380008093E20480E090E0A0EAB0E48093E4047B
:101390009093E504A093E604B093E70485E090E021
:1013A0009093D9048093D8048AE090E09093DB0472
:1013B0008093DA048DEC9CECACE4BEE38093DC0417
:1013C0009093DD04A093DE04B093DF041092E80450
:1013D0001092E9041092EA041092EB040AE010E083
:1013E000C12CD12C76016AE070E080E090E00E9490
:1013F000E60188ED94E00E94F8049B01AC01C7016E
:10140000B6010E9482146B017C010150110959F749
:101410002DEC3CEC44E251E40E94F3146093E804A8
:101420007093E9048093EA049093EB0442E050E067
:101430000E94230487E691E00E94210483E090E06B
:101440009093F6048093F50486E090E09093F8047E
:101450008093F70480E090E0A0EAB0E48093F90480
:101460009093FA04A093FB04B093FC0485E090E011
:101470009093EE048093ED048AE090E09093F00462
:101480008093EF048DEC9CECACE4BEE38093F1041C
:101490009093F204A093F304B093F4041092FD042B
:1014A0001092FE041092FF04109200050AE010E072
:1014B000C12CD12C76016AE070E080E090E00E94BF
:1014C000E6018DEE94E00E94F8049B01AC01C70197
:1014D000B6010E9482146B017C010150110959F779
:1014E0002DEC3CEC44E251E40E94F3146093FD04C3
:1014F0007093FE048093FF049093000542E050E057
:101500000E94230468EE73E080E090E00E94E60110
:101510000E94E90260E080E00E94920340E0A42E75
:1015200040E0B42E58E2752E0AE010E068E1862E05
:1015300062E0962E8FB7F894C0903005D0903105B8
:10154000E0903205F09033058FBFC0922B05D0920A
:101550002C05E0922D05F0922E0580915604909175
:101560005704A0915804B0915904A7019601281B73
:10157000390B4A0B5B0BDA01C9018A3F9105A105C2
:10158000B10508F4EDC080915C04882369F160E046
:101590008FE00E94920380912C0190912D01843064
:1015A00091050CF479C080E00E94C30310922D01D4
:1015B00010922C0180912C0190912D010196909315
:1015C0002D0180932C0180914805982F9460909371
:1015D00048058C600E94E302C0925604D0925704E2
:1015E000E0925804F09259048091D0049091D10473
:1015F00002970CF058C082E00E940B018093850492
:1016000020915A0430915B0480912A0190912B0122
:101610002817390708F453C010925C0460E085E095
:101620000E94340160E084E00E9434010E94E902DB
:101630008BE691E00E94210461E080E00E94920329
:1016400086E791E00E94210460912A0170912B01AC
:1016500090E080E04AE00E94DD0380E891E00E9493
:1016600021047A8286E00E940B01892BD9F77A82C5
:10167000109329010093280110925B0410925A04E0
:1016800081E080935C046CC060E082E00E946201B3
:1016900080E00E94C4006ECD845B9E4FFC0180817F
:1016A0000E94C30387CF8091CA049091CB04019715
:1016B00009F0A6CF1092D1041092D004A1CF80914E
:1016C0005A0490915B04059708F44AC061E084E0F5
:1016D0000E94340180918504813009F041C08091DD
:1016E000D0049091D1040197D9F510925C048091B7
:1016F000D204811135C060E085E00E94340160E0D1
:1017000084E00E9434010E94E9028BE691E00E948D
:10171000210461E080E00E94920385E891E00E944C
:10172000210479828981C0902801D09029018111FA
:101730003AC11C141D040CF036C17982F1E0CF1AB5
:10174000D108D0922901C092280110925B04109216
:101750005A0481E080935C0461E085E00E943401DA
:1017600080912B0590912C05A0912D05B0912E050F
:101770004091B2045091B3046091B4047091B504E7
:10178000841B950BA60BB70B883E9340A105B105B2
:1017900008F4BCC081E10E949E018C589109181682
:1017A00019060CF048C19093B1048093B004809165
:1017B000CE049091CF04181619069CF4880F991F37
:1017C000880F991FFC01E857FB4F80819181A2810E
:1017D000B38180932E0190932F01A0933001B09399
:1017E00031016091B0047091B104072E000C880B98
:1017F000990B0E949D1520912E0130912F0140914F
:101800003001509131010E94A21620E030E040E208
:1018100051E40E94F3140E9465157093870460934D
:1018200086048091D0049091D104823091050CF00F
:1018300007C182E00E940B01809385048091D2044D
:10184000813009F0E8C280913A01833009F4ECC19B
:1018500008F043C1813009F471C1823009F4A9C193
:1018600080918604909187042091CC043091CD041E
:101870008217930744F02091D204211102C01092E4
:101880003B0110925C04209138013091390182179C
:1018900093071CF481E080935C0480915C048823AE
:1018A00009F42FC580915A0490915B04019690939E
:1018B0005B0480935A0481E080933B0161E085E002
:1018C0000E94340180913B0161E0811101C060E020
:1018D00086E00E9434018091D0049091D104029757
:1018E0002CF01092850480E00E94C40080912B05AA
:1018F00090912C05A0912D05B0912E058093B204F6
:101900009093B304A093B404B093B50487E195E039
:101910000E945606D82E8093160582E095E00E941C
:101920005606E82E809301058DEE94E00E9456063F
:10193000F82E8093EC0488ED94E00E945606809384
:10194000D704DD2009F4D6C59091D6049111D2C5F3
:1019500081E080933B018091D204823009F4DCC4A1
:10196000833009F452C5813039F480913A018230D4
:1019700018F0815080933A01809116058093D60427
:10198000809101058093D5048091EC048093D40468
:101990008091D7048093D304A114B10409F4CACD73
:1019A0000E940000C7CD60E08EE00E9492030D2CE3
:1019B000000CEE08FF084AE0C701B601F7FE0BC0B5
:1019C0008DE20E94C30366277727CB016C197D093E
:1019D0008E099F094AE00E94DD0380914805982FF7
:1019E0009460909348058C600E94E3022FE73FE4E7
:1019F00042E1215030404040E1F700C000008091BA
:101A000048058B7F8093480588600E94E3025FE76A
:101A10008AE196E0515080409040E1F700C000001C
:101A200089818150898386E00E940B01892B09F00E
:101A300079CE79821DCE1092B1041092B004B7CE47
:101A40008930910594F082E00E940B01BC01990F4E
:101A5000880B990B0E949D1560933201709333019E
:101A60008093340190933501E9CE880F991F880F38
:101A7000991FFC01EF59FB4F80819181A281B381B5
:101A80008093320190933301A0933401B0933501D8
:101A9000E89890923D0180923C016091850470E04D
:101AA00090E080E00E949D15209132013091330139
:101AB00040913401509135010E94A21620E030E09F
:101AC00040E251E40E94F31460935D0470935E045D
:101AD00080935F0490936004B1CE843009F40CC10C
:101AE000853009F0BDCE0E94E9028091CA04909130
:101AF000CB04019709F053C18AE692E00E942104C9
:101B000061E08FE00E94920362E088E395E00E942A
:101B1000A10361E080E00E9492038AE892E00E94C3
:101B200021048091CE049091CF048130910509F079
:101B300040C182E992E00E94210492CE0E94E90213
:101B400086E991E00E942104609138017091390189
:101B5000072E000C880B990B0E949D1520E030E0A9
:101B600040E251E40E94F31441E050E00E9423045B
:101B700061E080E00E94920382EA91E00E942104E9
:101B80006091CC047091CD04072E000C880B990B4A
:101B90000E949D1520E030E040E251E40E94F314E1
:101BA00041E050E00E94230461E08FE00E94920334
:101BB000E0C10E94E9028EEA91E00E942104609156
:101BC000380170913901072E000C880B990B0E9487
:101BD0009D1520E030E040E251E40E94F31441E022
:101BE00050E00E94230461E080E00E9492038AEBAF
:101BF00091E00E9421046091CC047091CD04072EE5
:101C0000000C880B990B0E949D1520E030E040E20B
:101C100051E40E94F31441E050E00E94230461E08B
:101C20008FE00E9492039CC10E94E90282EA91E047
:101C30000E9421046091CC047091CD04072E000C09
:101C4000880B990B0E949D1520E030E040E251E4A2
:101C50000E94F31441E050E00E94230461E080E020
:101C60000E94920386EC91E00E9421048091D004AE
:101C70009091D1048130910529F48EEC91E00E947D
:101C80002104CDCF8230910519F487ED91E0F7CF93
:101C90008330910519F480EE91E0F1CF8430910505
:101CA00019F489EE91E0EBCF8530910519F482EFBC
:101CB00091E0E5CF8630910519F48BEF91E0DFCF0D
:101CC0008730910519F484E092E0D9CF88309105EE
:101CD00019F48DE092E0D3CF099729F486E192E0E0
:101CE0000E94210461CF8FE192E00E94210461E013
:101CF0008FE00E94920343C10E94E90288E292E0D1
:101D00000E9421048091D0049091D10481309105EA
:101D100089F48EEC91E00E94210461E080E00E9451
:101D200092038091CA049091CB040197A9F58AE4AB
:101D300092E0A5CF8230910519F487ED91E0EBCFC9
:101D40008330910519F480EE91E0E5CF8430910560
:101D500019F489EE91E0DFCF8530910519F480E325
:101D600092E0D9CF8630910519F48AE392E0D3CF7F
:101D70008730910519F484E092E0CDCF8830910549
:101D800019F48DE092E0C7CF099719F486E192E04B
:101D9000C2CF82E492E0BFCF8AE592E070CF8AE7BB
:101DA00092E00E94210461E08FE00E94920361E0D2
:101DB000ACCE8230910519F48BE992E0BCCE833031
:101DC000910519F484EA92E0B6CE8430910519F4B5
:101DD0008DEA92E0B0CE8530910519F486EB92E061
:101DE000AACE8630910519F48FEB92E0A4CE87300D
:101DF000910519F488EC92E09ECE8830910519F493
:101E000081ED92E098CE099719F48AED92E093CE95
:101E100086E192E090CE823009F070C180913A0163
:101E2000833009F4AEC008F047C0813009F45FC0C8
:101E3000823009F015CD0E94E90282EA91E00E9409
:101E4000210461E080E00E94920387E892E00E9412
:101E500021046091CC047091CD04072E000C880BF6
:101E6000990B0E949D1520E030E040E251E40E9471
:101E7000F31441E050E00E94230483EE92E00E94BC
:101E8000210461E08FE00E9492038091CC04909144
:101E9000CD0420913801309139012F5F3F4F40919F
:101EA000360150913701281739070CF064C08417A8
:101EB00095070CF05EC054C0843009F4C6C085306C
:101EC00009F0CECC0E94E90285E593E00E9421044E
:101ED00061E080E00E9492038091CE049091CF0453
:101EE0008130910509F0CAC086E693E0C8CE0E9411
:101EF000E9028EEA91E00E94210461E080E00E9404
:101F0000920387E892E00E94210460913801709169
:101F10003901072E000C880B990B0E949D1520E0BB
:101F200030E040E251E40E94F31441E050E00E94AE
:101F3000230483EE92E00E94210461E08FE00E947E
:101F4000920380913801909139012091CC04309115
:101F5000CD04215031098217930744F406977CF091
:101F600063E088E395E00E94A1037ACC06970CF425
:101F700077CC62E0F6CF841795070CF071CC61E066
:101F8000F0CF0E94E90289EE92E00E94210461E014
:101F900080E00E9492038091D0049091D10481301E
:101FA000910519F486EF92E06ACE8230910519F41A
:101FB0008DEF92E064CE8330910519F483E093E0D5
:101FC0005ECE8430910519F48AE093E058CE8530D6
:101FD000910519F481E193E052CE8630910519F410
:101FE00088E193E04CCE8730910519F48FE193E0BE
:101FF00046CE8830910519F487E293E040CE0997E8
:1020000009F58FE293E00E942104C0903201D09044
:102010003301E0903401F090350120E030E040E2FF
:1020200051E4C701B6010E94EE1442E050E087FD82
:1020300002C041E050E0C701B6010E94230489E8D4
:1020400092E01DCE89E393E050CE0E94E9028EE338
:1020500093E00E94210461E080E00E94920380915D
:10206000CA049091CB04009719F485E493E03DCE27
:10207000019709F0F5CB8AE493E032CE82309105E6
:1020800019F48EE693E0FBCD8330910519F486E7D1
:1020900093E0F5CD8430910519F48EE793E0EFCD10
:1020A0008530910519F486E893E0E9CD86309105F5
:1020B00019F48EE893E0E3CD8730910519F486E9B1
:1020C00093E0DDCD8830910519F48EE993E0D7CD0A
:1020D000099719F486EA93E003CE8EEA93E00E9412
:1020E000210460912E0170912F0180913001909117
:1020F000310142E050E00E942304F9CD833009F021
:1021000081C080913A01833051F1853009F0A8CB2C
:102110000E94E90288ED93E00E94210461E080E0E2
:102120000E94920360912E0170912F0180913001E5
:102130009091310142E050E00E94230488EE93E048
:102140000E94210461E08FE00E949203C0902E0162
:10215000D0902F01E0903001F090310134C00E9406
:10216000E90289EB93E00E94210461E080E00E9493
:102170009203C0903201D0903301E0903401F0908E
:10218000350120E030E040E251E4C701B6010E9491
:10219000EE1442E050E087FD02C041E050E0C7018C
:1021A000B6010E94230489EC93E00E94210461E0BF
:1021B0008FE00E949203C0903201D0903301E090F2
:1021C0003401F090350120E030E0A901C701B601EB
:1021D0000E944D1618165CF420E030E040E251E415
:1021E000C701B6010E94EE1487FFC3CEB9CE20E02E
:1021F00030E0A901C701B6010E94EE14882309F45A
:10220000BECEB7CE0E94E90260E080E00E94920359
:102210008091D0049091D104181619060CF058C082
:10222000019709F040C080918504811139C08091E7
:102230005C04882391F183EF93E00E942104809154
:102240005A0490915B04892B49F060915A04709173
:102250005B0490E080E04AE00E94DD0361E080E002
:102260000E94920384E494E00E9421046091860419
:1022700070918704072E000C880B990B0E949D1506
:1022800020E030E040E251E40E94F31441E050E0ED
:102290000E9423048CE494E04ECC8FEF93E0CDCFEA
:1022A0008BE094E0CACF87E194E00E942104609122
:1022B0005D0470915E0480915F049091600441E040
:1022C00050E00E9423048EE194E00E942104C6CFD6
:1022D00080915A0490915B04892B81F087E294E00D
:1022E0000E94210460915A0470915B0490E080E0A8
:1022F0004AE00E94DD038FE294E0E7CF84E394E0BC
:10230000E4CF10925B0410925A0460E085E00E94D2
:10231000340160E084E0D4CA80913A018130C1F494
:1023200060913801709139018091CC049091CD0475
:102330000197681779070CF01FCB6F5F7F4F709381
:1023400039016093380190E080E00E94860614CB4A
:102350008230B1F46091CC047091CD04809136014B
:10236000909137010197681779070CF005CB6F5FE3
:102370007F4F7093CD046093CC0481E090E0E5CF73
:10238000833089F46091D0047091D1046930710573
:102390000CF0F2CA6F5F7F4F7093D1046093D0044A
:1023A00083E090E0D2CF843089F46091CA047091C8
:1023B000CB04161617060CF4DFCA6F5F7F4F7093BD
:1023C000CB046093CA0482E090E0BFCF853009F06F
:1023D000D3CA6091CE047091CF04693071050CF0BE
:1023E000CBCA6F5F7F4F7093CF046093CE04FB0125
:1023F000EE0FFF1FEA54FB4F8081918190933701CC
:102400008093360185E090E0A0CF80913A0183303F
:10241000E1F58091D0049091D1040997B1F5C09075
:102420003201D0903301E0903401F090350120E08A
:1024300030E048EC52E4C701B6010E94EE1487FF79
:1024400024C020E030E040E251E4C701B6010E9420
:10245000EE142AE037ED43E25CE387FD04C02DEC87
:102460003CEC4CEC5DE3C701B6010E948214609322
:10247000320170933301809334019093350162E30C
:1024800071E084E090E00E94880680913A018530F6
:1024900009F072CA8091CE049091CF04892B09F083
:1024A0006BCAC0902E01D0902F01E0903001F090C7
:1024B000310120E030E040E251E4C701B6010E9462
:1024C000EE1487FF59CA2AE037ED43E25CE3C70107
:1024D000B6010E94821460932E0170932F018093A5
:1024E0003001909331016EE271E086E090E00E944D
:1024F000880642CAEE2009F4CCC09091D50491110F
:10250000C8C081E080933B018091D204823069F0A1
:10251000833009F456C0813009F02ECA80913A0107
:10252000853008F029CA8F5F25CA80913A01813031
:1025300059F46091380170913901673071050CF4DC
:102540001BCA61507109FBCE823081F46091CC04CA
:102550007091CD04809138019091390101968617D0
:1025600097070CF009CA6150710903CF833059F401
:102570006091D0047091D104161617060CF0FCC9B6
:102580006150710909CF843071F48091CA0490912F
:10259000CB04181619060CF0EFC91092CB04109258
:1025A000CA0460E010CF853009F0E6C96091CE041E
:1025B0007091CF04161617060CF0DEC96150710930
:1025C00012CF80913A018330E1F58091D00490914F
:1025D000D1040997B1F5C0903201D0903301E09059
:1025E0003401F09035012AE037ED43E25CE3C701A6
:1025F000B6010E944D16181624F520E030E040E2A6
:1026000051E4C701B6010E94EE142AE037ED43E21F
:102610005CE387FD04C02DEC3CEC4CEC5DE3C701B2
:10262000B6010E948114609332017093330180934C
:1026300034019093350162E371E084E090E00E9400
:10264000880680913A01853009F096C98091CE04C0
:102650009091CF04892B09F08FC9C0902E01D090A2
:102660002F01E0903001F09031012AE037ED43E294
:102670005CE3C701B6010E944D1618160CF07CC928
:102680002AE037ED43E25CE3C701B6010E94811402
:1026900022CFFF20C9F09091D404911115C091E090
:1026A00090933B018091D204823059F038F083300E
:1026B00009F062C982E08093D2045EC91092D2040C
:1026C0005BC99093D20458C9882309F455C98091F5
:1026D000D304811151C981E080933B019091D204D0
:1026E000913041F380F0923009F046C980913A016F
:1026F000833061F48091D0049091D104099709F05E
:102700003BC983E0D8CF80933A01D5CF853009F01B
:1027100033C98091CE049091CF04892B09F02CC944
:10272000F0CF80913601909137019093CD04809342
:10273000CC04E8E8F4E08DEC9CECACE8BFE38083EB
:102740009183A283B38347ED53EA60E37FE344833D
:102750005583668377834FE852EC65E77FE34087D4
:1027600051876287738784879587A687B78789E2B1
:102770009CE5AFEABFE3808B918BA28BB38B83E3A5
:1027800093E3A3EDBFE3848B958BA68BB78B8AE095
:1027900097EDA3E0B0E4808F918FA28FB38F80E09C
:1027A00090E0A0E3B0E4848F958FA68FB78F86EF7B
:1027B00098E2A4E8B0E480A391A3A2A3B3A380E02D
:1027C00090E0A0EBB0E484A395A3A6A3B7A3E6EBA7
:1027D000F4E080E590E09183808322E330E033836E
:1027E000228326E430E0358324839783868384E63E
:1027F00090E09187808788E790E09387828786E9D9
:1028000090E09587848788EC90E0978786878CE2B4
:1028100091E0918B808B80E991E0938B828BE1E654
:10282000F4E01082118212821382148215821682C1
:1028300017828FE195E8ABE1B1E480879187A287A9
:10284000B38787ED93EAAAEBB1E484879587A687DF
:10285000B787808B918BA28BB38B80E090E0A2E551
:10286000B2E4848B958BA68BB78B80E090E0A0EED2
:10287000BFE3808F918FA28FB38F8EEA97E4A1EE92
:10288000BDE3848F958FA68FB78F83E393E3A3EB8C
:10289000BFE380A391A3A2A3B3A3E8E3F5E013826F
:1028A000128284E491E0918380838CE084838FEFB3
:1028B00085838BE086838AE0878389E0808788E050
:1028C000818787E082871386148615861686178689
:1028D00081E00C94F002F999FECF92BD81BDF89A87
:1028E000992780B50895262FF999FECF1FBA92BD7A
:1028F00081BD20BD0FB6F894FA9AF99A0FBE0196E1
:1029000008955058BB27AA270E9499140C941316B7
:102910000E94051638F00E940C1620F039F49F3FF3
:1029200019F426F40C9402160EF4E095E7FB0C94CF
:10293000FC15E92F0E94241658F3BA176207730793
:102940008407950720F079F4A6F50C9446160EF44A
:10295000E0950B2EBA2FA02D0B01B90190010C01AF
:10296000CA01A0011124FF27591B99F0593F50F4C7
:10297000503E68F11A16F040A22F232F342F44271F
:10298000585FF3CF469537952795A795F040539517
:10299000C9F77EF41F16BA0B620B730B840BBAF0E7
:1029A0009150A1F0FF0FBB1F661F771F881FC2F752
:1029B0000EC0BA0F621F731F841F48F48795779566
:1029C0006795B795F7959E3F08F0B0CF9395880F20
:1029D00008F09927EE0F9795879508950E94D815CE
:1029E00008F481E008950E9407150C9413160E94C4
:1029F0000C1658F00E94051640F029F45F3F29F0AC
:102A00000C94FC1551110C9447160C9402160E945C
:102A1000241668F39923B1F3552391F3951B550BB5
:102A2000BB27AA2762177307840738F09F5F5F4FA1
:102A3000220F331F441FAA1FA9F335D00E2E3AF0E0
:102A4000E0E832D091505040E695001CCAF72BD0F8
:102A5000FE2F29D0660F771F881FBB1F2617370749
:102A60004807AB07B0E809F0BB0B802DBF01FF277B
:102A700093585F4F3AF09E3F510578F00C94FC1547
:102A80000C9447165F3FE4F3983ED4F38695779510
:102A90006795B795F7959F5FC9F7880F911D969534
:102AA000879597F90895E1E0660F771F881FBB1F90
:102AB000621773078407BA0720F0621B730B840B3D
:102AC000BA0BEE1F88F7E09508950E946C15689484
:102AD000B1110C94471608950E942C1688F09F5748
:102AE00098F0B92F9927B751B0F0E1F0660F771F32
:102AF000881F991F1AF0BA95C9F714C0B13091F028
:102B00000E944616B1E008950C944616672F782F60
:102B10008827B85F39F0B93FCCF3869577956795EC
:102B2000B395D9F73EF490958095709561957F4F58
:102B30008F4F9F4F0895E89409C097FB3EF49095FE
:102B40008095709561957F4F8F4F9F4F9923A9F086
:102B5000F92F96E9BB279395F69587957795679515
:102B6000B795F111F8CFFAF4BB0F11F460FF1BC059
:102B70006F5F7F4F8F4F9F4F16C0882311F096E9EC
:102B800011C0772321F09EE8872F762F05C066239A
:102B900071F096E8862F70E060E02AF09A95660F53
:102BA000771F881FDAF7880F9695879597F908950C
:102BB000990F0008550FAA0BE0E8FEEF161617064E
:102BC000E807F907C0F012161306E407F50798F0B6
:102BD000621B730B840B950B39F40A2661F0232BCF
:102BE000242B252B21F408950A2609F4A140A6954B
:102BF0008FEF811D811D089597F99F6780E870E030
:102C000060E008959FEF80EC089500240A94161662
:102C1000170618060906089500240A9412161306CA
:102C2000140605060895092E0394000C11F4882358
:102C300052F0BB0F40F4BF2B11F460FF04C06F5F74
:102C40007F4F8F4F9F4F089557FD9058440F551F4A
:102C500059F05F3F71F04795880F97FB991F61F01E
:102C60009F3F79F087950895121613061406551F95
:102C7000F2CF4695F1DF08C0161617061806991F01
:102C8000F1CF86957105610508940895E894BB27F6
:102C900066277727CB0197F908950E94D81508F485
:102CA0008FEF089516F00C9414170C940216689484
:102CB0000C94FC150E942C16A8F39923C1F3AEF3D3
:102CC000DF93CF931F930F93FF92C92FDD278823A4
:102CD0002AF02197660F771F881FDAF720E030E08F
:102CE00040E85FEB9FE3883920F0803E38F0219682
:102CF0008F770E948214E8E6F0E004C00E948214FC
:102D0000E5E9F0E00E9422178B01BE01EC01FB2EE9
:102D10006F5771097595771F880B990B0E949D1548
:102D200028E132E741E35FE30E94B516AF2D980139
:102D3000AE01FF900F911F91CF91DF910E949914E6
:102D40000C9413160E94B5160C9413160E940516C7
:102D500038F00E940C1620F0952311F00C94FC150D
:102D60000C94021611240C9447160E94241670F33A
:102D7000959FC1F3950F50E0551F629FF001729F20
:102D8000BB27F00DB11D639FAA27F00DB11DAA1F2F
:102D9000649F6627B00DA11D661F829F2227B00D7C
:102DA000A11D621F739FB00DA11D621F839FA00D07
:102DB000611D221F749F3327A00D611D231F849F57
:102DC000600D211D822F762F6A2F11249F575040AE
:102DD0009AF0F1F088234AF0EE0FFF1FBB1F661F29
:102DE000771F881F91505040A9F79E3F510580F0F2
:102DF0000C94FC150C9447165F3FE4F3983ED4F313
:102E0000869577956795B795F795E7959F5FC1F795
:102E1000FE2B880F911D9695879597F908950E942E
:102E2000D815880B990B08959F3F31F0915020F4ED
:102E3000879577956795B795880F911D9695879596
:102E400097F90895DF93CF931F930F93FF92EF921B
:102E5000DF927B018C01689406C0DA2EEF010E949C
:102E6000B516FE01E894A5912591359145915591AE
:102E7000A6F3EF010E949914FE019701A801DA94CC
:102E800069F7DF90EF90FF900F911F91CF91DF9145
:102E90000895A1E21A2EAA1BBB1BFD010DC0AA1F9B
:102EA000BB1FEE1FFF1FA217B307E407F50720F0B3
:102EB000A21BB30BE40BF50B661F771F881F991F2E
:102EC0001A9469F760957095809590959B01AC0177
:102ED000BD01CF010895EE0FFF1F0590F491E02D85
:062EE0000994F894FFCFF5
:102EE60010181C1E1C181000040E1F00001F0E04D4
:102EF60000000000001F0E04040E1F00000000006A
:102F060000100804020100000A008403010066663E
:102F1600A63F0000803F5000050001011802000096
:102F260000000000A1031902CD03CC03207C2F2D45
:102F3600006E616E00696E66006F766600553A0037
:102F460020443A00453A0020423A002120414C41B3
:102F5600524D2021200052756E206F76657220003A
:102F660020736563004D6F746F72204F4E206E6F35
:102F760020666C7578003E4D696E207072657373BD
:102F86003A00204D61782070726573733A00204DC7
:102F9600696E2070726573733A003E4D61782070D9
:102FA600726573733A003E4673656E3A2000537736
:102FB6006974636820200059462D42312020200084
:102FC6005946444E33322020005946444E34302070
:102FD60020005946444E35302020004653333030C9
:102FE6004120200059462D53343031200059462DBA
:102FF600533230312000437573746F6D2020004EBC
:103006006F6E652020202000204673656E3A2000F2
:103016005946444E35302020200046533330304147
:1030260020004E6F6E65202020003E4D6F646520A7
:10303600636F6D707265737320003E4D6F6465201B
:1030460070756D70202020202000204D6F64652053
:10305600636F6D70726573732000204D6F64652019
:1030660070756D702020202020003E5073656E3AEA
:1030760020003530304B70612020003730304B70E7
:10308600612020003830304B7061202000314D70B7
:10309600612020202000312E324D70612020003129
:1030A6002E354D7061202000324D70612020202089
:1030B60000334D70612020202000344D70612020A7
:1030C600202000202062617200466C7578205365CE
:1030D6006E736F723A005377697463680059462DB0
:1030E6004231005946444E3332005946444E34303C
:1030F600005946444E35300046533330304100596E
:10310600462D533430310059462D53323031003E6E
:1031160020437573746F6D20004E6F6E6500204DF1
:103126006F64653A0050756D7000436F6D7072651F
:1031360073736F7200507265737375726520736571
:103146006E736F723A00353030204B706100373045
:1031560030204B706100383030204B706100312ECA
:1031660030204D706100312E32204D706100312EBD
:1031760035204D706100322E30204D706100332EA7
:1031860030204D706100342E30204D7061003E209D
:10319600437573746F6D3A20005365742070756CB7
:1031A600736520726174652000204B2028766F6C51
:1031B6002F70756C7365290050726573737572652F
:1031C60020666163746F7200204261722F566F6CC5
:1031D600747300466C6F773A20594553202000528D
:1031E6006566696C6C206F696C2100466C6F773A76
:1031F600204E4F20202000466C6F773A2000204C4E
:103206002F6D20202020004F4E20666F7220007305
:103216002020200020205052455353464C4F5769DA
:103226006E6F200050726573733A200020626172DF
:0632360020202020000012
:00000001FF
