:020000040000FA
:100000000C9494000C94330A0C940C0A0C94BC00CD
:100010000C94BC000C94BC000C94BC000C94BC0070
:100020000C94BC000C94BC000C94BC000C94BC0060
:100030000C94BC000C94BC000C94BC000C94BC0050
:100040000C94C2090C94BC000C94BC000C94BC0031
:100050000C94BC000C94BC000C94BC000C94BC0030
:100060000C94BC000C94BC0008000000BE92244913
:10007000123EABAAAA2ABECDCCCC4C3E00000080DA
:10008000BEABAAAAAA3E00000000BF000000803F4D
:100090000000000000084178D3BB4387D1133D190D
:1000A0000E3CC3BD4282AD2B3E68EC8276BED98F3A
:1000B000E1A93E4C80EFFFBE01C4FF7F3F0000007E
:1000C000000000000000240027002A0000000000BB
:1000D000250028002B000000000023002600290036
:1000E00004040404040404040202020202020303DE
:1000F00003030303020203010204081020408001ED
:100100000204081020010204081020408040000072
:1001100000090003020000040508000000000000C0
:100120000000000000003C1411241FBECFEFD8E0F7
:10013000DEBFCDBF14E0A0E0B1E0ECE3F0E302C02D
:1001400005900D92A036B107D9F725E0A0E6B4E0FE
:1001500001C01D92AE35B207E1F710E0C4E9D0E06E
:1001600004C02197FE010E941618C339D107C9F7B0
:100170000E945A0A0C941C180C9400008091A90447
:100180008F5F8093A90408958230D8F4E82FF0E0BF
:10019000EE0FFF1FE45CFE4F2EEB30E03183208337
:1001A000813041F0809169008C7F8260809369008A
:1001B000E89A089580916900837F88608093690040
:1001C000E99A0895843081F028F48230E9F0833090
:1001D000F9F00895883071F0893091F08530B9F4E4
:1001E000809180008F7D03C0809180008F77809305
:1001F000800008958091B0008F778093B0000895BB
:100200008091B0008F7DF9CF84B58F7784BD08953C
:1002100084B58F7DFBCFCF93DF93E0E1F1E0849154
:10022000E9EFF0E0D491E2EEF0E0C491CC23A1F04C
:1002300081110E94E200EC2FF0E0EE0FFF1FEA5266
:10024000FF4FA591B491EC91ED2381E090E009F48A
:1002500080E0DF91CF91089580E090E0FACF1F9386
:10026000CF93DF93282F30E0F901E25FFE4F8491B6
:10027000F901E950FF4FD491F901E052FF4FC491C9
:10028000CC23A9F0162F81110E94E200EC2FF0E0A0
:10029000EE0FFF1FE453FF4FA591B4918FB7F89471
:1002A000EC91111108C0D095DE23DC938FBFDF9154
:1002B000CF911F910895DE2BF8CFCF93DF9390E07D
:1002C000FC01E950FF4F249180529F4FFC01849123
:1002D0008823C9F090E0880F991FFC01EE53FF4F6F
:1002E000A591B491FC01E453FF4FC591D4916111E4
:1002F0000DC09FB7F8948C91209582238C938881B0
:10030000282328839FBFDF91CF910895623051F455
:100310009FB7F8943C91822F809583238C93E8813A
:100320002E2BEFCF8FB7F894EC912E2B2C938FBF01
:10033000EACF883020F08D3008F48DE08E50877041
:10034000806480937C0080917A00806480937A003E
:1003500080917A0086FDFCCF8091780090917900A1
:100360000895000000008330910528F0880F991F40
:1003700005970197F1F708953FB7F89480914205EA
:1003800090914305A0914405B091450526B5A89BE1
:1003900005C02F3F19F00196A11DB11D3FBFBA2F17
:1003A000A92F982F8827BC01CD01620F711D811DD7
:1003B000911D43E0660F771F881F991F4A95D1F75B
:1003C00008958F929F92AF92BF92CF92DF92EF9259
:1003D000FF924B015C010E94BC016B017C010E94F9
:1003E000BC016C197D098E099F09683E7340810527
:1003F0009105A8F321E0821A9108A108B10888EEBE
:10040000C80E83E0D81EE11CF11C81149104A104E4
:10041000B10429F7FF90EF90DF90CF90BF90AF909D
:100420009F908F9008950895AF92BF92CF92DF92E0
:10043000EF92FF920F931F93CF93DF936C017B0199
:100440008B01040F151FEB015E01AE18BF08C0172A
:10045000D10759F06991D601ED91FC910190F0819D
:10046000E02DC6010995892B79F7C501DF91CF9160
:100470001F910F91FF90EF90DF90CF90BF90AF90C2
:100480000895CF93DF93EC0160E08E810E942F01ED
:1004900081E090E00E94B10161E08E810E942F0115
:1004A00081E090E00E94B10160E08E810E942F0106
:1004B00084E690E0DF91CF910C94B101CF92DF926E
:1004C000EF92FF920F931F93CF93DF936C017C0108
:1004D00087E0E80EF11CD0E0C0E0062F10E0B80184
:1004E0000C2E02C0759567950A94E2F76170F701CA
:1004F00081917F010E942F012196C430D10579F7A7
:10050000C601DF91CF911F910F91FF90EF90DF9087
:10051000CF900C944102CF92DF92EF92FF920F9313
:100520001F93CF93DF93EC01F62E642F8C810E94F2
:100530002F018D818F3F19F060E00E942F010F2D58
:1005400010E08F8584FF25C06E0187E0C80ED11CA6
:10055000F12CE12CB8010E2C02C0759567950A9418
:10056000E2F76170F60181916F010E942F01FFEFA8
:10057000EF1AFF0A88E0E816F10461F7CE01DF9177
:10058000CF911F910F91FF90EF90DF90CF900C943F
:100590004102B80184E0759567958A95E1F7CE012F
:1005A0000E945E026F2DCE01DF91CF911F910F91BE
:1005B000FF90EF90DF90CF900C945E0240E0682FA8
:1005C00086E495E00C948B0281E00E94DE0280EDCF
:1005D00097E00C94B101CF93DF93823029F490918E
:1005E00055059860909355058093590510925A05CA
:1005F00080E480935B0580E180935C0580E58093D7
:100600005D0561E080914A050E945D0180914B0586
:100610008F3F19F061E00E945D0161E080914C051F
:100620000E945D01C6E4D5E09E01265435408091CC
:10063000550584FD0BC084E090E02196281739070A
:1006400044F461E08E810E945D01EECF88E090E08D
:10065000F4CF80E593EC0E94B10160E080914A05FF
:100660000E942F0160E080914C050E942F01809133
:100670004B058F3F19F060E00E942F0180915505D6
:1006800084FD35C063E086E495E00E945E0284E963
:1006900091E10E94B10163E086E495E00E945E0270
:1006A00084E991E10E94B10163E086E495E00E9453
:1006B0005E0286E990E00E94B10162E086E495E086
:1006C0000E945E028091550580620E94DE0284E0F5
:1006D000809356058CE00E94DE020E94E40282E0D4
:1006E0008093570586E0DF91CF910C94DE02806203
:1006F0000E94DE0284E991E10E94B10180915505DA
:1007000080620E94DE0286E990E00E94B101809141
:10071000550580620E94DE02D5CF90915905691778
:1007200010F06FEF690FE62FF0E0EA5BFA4F948963
:10073000890F80680C94DE0241E00E948B0281E008
:1007400090E008950F931F93CF93DF938B0128E0E0
:10075000829FC001112480640E94DE02E801085FCC
:100760001F4F699186E495E00E949C03C017D10752
:10077000C1F7DF91CF911F910F91089541E0682F4C
:1007800086E495E00E948B0281E090E00895089550
:1007900090E080E00895FC0101900020E9F7319796
:1007A000AF01481B590BBC0186E495E00C94140280
:1007B0008F929F92AF92BF920F931F93CF93DF932D
:1007C000CDB7DEB7A1970FB6F894DEBF0FBECDBF91
:1007D00019A2423008F44AE08E010F5D1F4F842EAB
:1007E000912CB12CA12CA50194010E94F417E62FA5
:1007F000B901CA01EA30F4F4E05DD801EE938D014D
:10080000232B242B252B79F790E080E0109719F00B
:10081000CD010E94CB03A1960FB6F894DEBF0FBEA8
:10082000CDBFDF91CF911F910F91BF90AF909F905F
:100830008F900895E95CE1CF0C94CB03BC0190E06C
:1008400080E04AE00C94D8034F925F926F927F92BF
:100850008F929F92AF92BF92CF92DF92EF92FF92D0
:10086000CF93DF936B017C01942EAC019B010E941E
:10087000BA17882391F081E591E0DF91CF91FF9045
:10088000EF90DF90CF90BF90AF909F908F907F9030
:100890006F905F904F900C94CB0326013701E89442
:1008A00077F82FEF3FEF4FE75FE7C301B2010E94F8
:1008B000BA1781110DC02FEF3FEF4FE75FE7C3017C
:1008C000B2010E94991518161CF485E591E0D5CF68
:1008D0002FEF3FEF4FE75FE4C701B6010E94F81624
:1008E00018161CF489E591E0C8CF2FEF3FEF4FE7D2
:1008F0005FECC701B6010E94991587FDF3CF20E098
:1009000030E0A901C701B6010E949915B12CA12CB4
:1009100087FF08C08DE20E94BE035C01F7FAF094E5
:10092000F7F8F094C92D60E070E080E09FE3D0E03C
:1009300020E030E040E251E40E949E1521E02D0FBE
:10094000D1E02915A8F3A70196010E942D152B01CE
:100950003C010E9417166B017C010E9446169B0108
:10096000AC01C301B2010E942C152B013C014AE0ED
:10097000C701B6010E94D8037C018EE20E94BE032B
:10098000E80EF91EEA0CFB1CC15000F120E030E03B
:1009900040E251E4C301B2010E944D172B013C011A
:1009A0000E9417164B01CB010E941E04E80EF91E8F
:1009B000B40190E080E00E9446169B01AC01C301A7
:1009C000B2010E942C152B013C01DECFC701DF9143
:1009D000CF91FF90EF90DF90CF90BF90AF909F901E
:1009E0008F907F906F905F904F9008952F923F92DD
:1009F0004F925F926F927F928F929F92AF92BF922F
:100A0000CF92DF92EF92FF920F931F93CF93DF93DA
:100A1000CDB7DEB728970FB6F894DEBF0FBECDBFB7
:100A20001C012DB73EB738872F83FC01808191814F
:100A3000880F991F880F991F281B390B0FB6F89440
:100A40003EBF0FBE2DBF8DB79EB701969A83898397
:100A500020E030E040E854E464857585868597851C
:100A60000E944D1720E030E040EA50E40E949E15BD
:100A700026E636E646E65FE30E944D174B015C0131
:100A800010E000E0F101E080F1800E151F050CF090
:100A9000A3C061E080850E942F010E94BC012B0150
:100AA0003C01C12CD12C7601F10182850E94990173
:100AB000BC01990F880B990B0E944816A50194015F
:100AC0000E94991587FF63C00E94BC0164197509D3
:100AD000860997090E9446166B017C01F10162812B
:100AE0007381072E000C880B990B0E944816A701F2
:100AF00096010E94991587FFD7CF0E94BC016B8396
:100B00007C838D839E83F10182850E949901BC01C3
:100B1000990F880B990B0E9448166B017C0126E601
:100B200036E646E65FE3C501B4010E949E159B01CF
:100B3000AC01C701B6010E949E159B01AC0160E0AB
:100B400070E080E89FE30E942C150E9405176B015E
:100B50007C01F7FAF094F7F8F0946B817C816419CA
:100B60007509072E000C880B990B0E9448169B01F3
:100B7000AC01C701B6010E949E159B01AC016DE856
:100B80007DE583E190E40E949E156B017C0160E0AD
:100B9000F10180850E942F018AE090E00E94B1015E
:100BA00020E030E0A901C701B6010E94F81618162E
:100BB00084F4F801EE0FFF1FEE0FFF1F29813A8129
:100BC000E20FF31FC082D182E282F3820F5F1F4FD8
:100BD00059CF01501109FACFB7010F2C000C880B27
:100BE000990B0E944816F101248135814681578175
:100BF0000E944D170E9410162B018B01000F111F30
:100C0000000F111F29813A81020F131F6201812CED
:100C1000912C5401E418F508CE14DF0484F4F80193
:100C200021913191419151918F01C501B4010E94EF
:100C30002D154B015C01FFEFCF1ADF0AEDCFE41851
:100C4000F508B701FF0C880B990B0E9448169B0111
:100C5000AC01C501B4010E949E15F10120893189C2
:100C6000428953890E942C152F8138850FB6F8943C
:100C70003EBF0FBE2DBF28960FB6F894DEBF0FBE45
:100C8000CDBFDF91CF911F910F91FF90EF90DF903B
:100C9000CF90BF90AF909F908F907F906F905F901C
:100CA0004F903F902F900895CF92DF92EF92FF9256
:100CB0000F931F93CF93DF938C01C6E0D0E0C12C3C
:100CC000D12C7601C8010E94F6049B01AC01C7013A
:100CD000B6010E942D156B017C01219799F7AC019B
:100CE0009B01F80160897189828993890E94991515
:100CF000881F8827881FDF91CF911F910F91FF9048
:100D0000EF90DF90CF9008950C941E159F92AF92B4
:100D1000BF92CF92DF92EF92FF920F931F93CF93E8
:100D2000DF935C017B018B01D0E0C0E0F801919082
:100D30008F016501CC0EDD1EC6010E9416159816A6
:100D400021F0692DC6010E941E152196C430D105DF
:100D500069F7C701DF91CF911F910F91FF90EF903D
:100D6000DF90CF90BF90AF909F900895CF92DF9289
:100D7000EF92FF929091E0049130A9F050F0923000
:100D800069F1933009F416C1FF90EF90DF90CF9096
:100D90000895823469F08534B9F781E080932E019B
:100DA0008093E004F1CF843499F02CF4823461F71D
:100DB0001092E004E9CF853409F404C1853521F7A8
:100DC00080912E01823000F3815080932E01DCCF80
:100DD00080912E018530C0F68F5FF7CF843409F4FF
:100DE0009DC024F4823481F681E0DACF8534E1F0CD
:100DF000853551F680912E01813071F560912F017A
:100E00007091300180917C0490917D040197681766
:100E100079070CF0B9CF6F5F7F4F7093300160930B
:100E20002F0190E080E02FC080912E01833049F4A3
:100E30008091AA049091AB04099709F0A5CF83E0B3
:100E4000AFCF853009F0A0CF8091D6049091D70420
:100E5000892B09F099CFF3CF8230D9F460917C04CB
:100E600070917D0480912C0190912D01019768175C
:100E700079070CF089CF6F5F7F4F70937D0460938B
:100E80007C0481E090E0FF90EF90DF90CF900C9495
:100E90008406833089F46091AA047091AB046930B0
:100EA00071050CF071CF6F5F7F4F7093AB0460934F
:100EB000AA0483E090E0E7CF843089F4609178045D
:100EC00070917904161617060CF45ECF6F5F7F4F92
:100ED000709379046093780482E090E0D4CF8530F9
:100EE00009F052CF6091D6047091D7046930710532
:100EF0000CF04ACF6F5F7F4F7093D7046093D60496
:100F0000FB01EE0FFF1FE05AFB4F80819181909310
:100F10002D0180932C0185E090E0B5CF80912E01CA
:100F2000813059F460912F01709130016730710563
:100F30000CF42ACF6150710970CF823081F4609136
:100F40007C0470917D0480912F0190913001019675
:100F5000861797070CF018CF615071098ECF833038
:100F600059F46091AA047091AB04161617060CF0A0
:100F70000BCF6150710999CF843071F4809178045E
:100F800090917904181619060CF0FECE109279048F
:100F90001092780460E0A0CF853009F0F5CE609122
:100FA000D6047091D704161617060CF0EDCE6150DA
:100FB0007109A2CF843409F47FC0853529F08234C9
:100FC00009F0E2CE82E0ECCE80912E018330E1F593
:100FD0008091AA049091AB040997B1F5C0903301B8
:100FE000D0903401E0903501F090360120E030E0FF
:100FF00048EC52E4C701B6010E94991587FF24C04E
:1010000020E030E040E251E4C701B6010E949915AA
:101010002AE037ED43E25CE387FD04C02DEC3CECB5
:101020004CEC5DE3C701B6010E942D1560933301BE
:1010300070933401809335019093360163E371E03E
:1010400084E090E00E94860680912E01853009F0B0
:101050009BCE8091D6049091D704892B09F094CE31
:10106000C0903701D0903801E0903901F0903A01FA
:1010700020E030E040E251E4C701B6010E9499153A
:1010800087FF82CE2AE037ED43E25CE3C701B60179
:101090000E942D15609337017093380180933901B8
:1010A00090933A0167E371E086E090E0FF90EF9063
:1010B000DF90CF900C94860680912E018330E1F56D
:1010C0008091AA049091AB040997B1F5C0903301C7
:1010D000D0903401E0903501F09036012AE037EDF0
:1010E00043E25CE3C701B6010E94F816181624F526
:1010F00020E030E040E251E4C701B6010E949915BA
:101100002AE037ED43E25CE387FD04C02DEC3CECC4
:101110004CEC5DE3C701B6010E942C1560933301CE
:1011200070933401809335019093360163E371E04D
:1011300084E090E00E94860680912E01853009F0BF
:1011400023CE8091D6049091D704892B09F01CCE30
:10115000C0903701D0903801E0903901F0903A0109
:101160002AE037ED43E25CE3C701B6010E94F816BE
:1011700018160CF009CE2AE037ED43E25CE3C70114
:10118000B6010E942C1586CFCF92DF92EF92FF928C
:101190000F931F93CF93DF93EB017B0124E0E20ECB
:1011A000F11C8B016C01C61AD70AC601800F911F72
:1011B0000E941615F80181938F01EE15FF05A9F71E
:1011C000CE01DF91CF911F910F91FF90EF90DF90B3
:1011D000CF9008950C941615CF92DF92EF92FF9264
:1011E0000F931F93CF93DF931F92CDB7DEB78C0180
:1011F00060E085E00E942F0160E084E00E942F0102
:10120000109280040230110509F449C00E94E402E2
:101210008DE591E00E941C0461E080E00E948D0356
:1012200088E691E00E941C04809128019091290198
:101230000E941E0482E791E00E941C0488E28983D8
:101240000130110509F478C08981C0903101D09036
:101250003201811131C01C141D0474F588E28983A8
:1012600021E0C21AD108D0923201C092310110920D
:101270007B0410927A0410927F0410927E0481E025
:101280008093800461E085E00F90DF91CF911F9102
:101290000F91FF90EF90DF90CF900C942F010E9460
:1012A000E40287E791E00E941C0461E080E00E9474
:1012B0008D0381E891E0C0CF60E08EE00E948D0355
:1012C0000D2C000CEE08FF084AE0C701B601F7FE3E
:1012D0000BC08DE20E94BE0366277727CB016C19F5
:1012E0007D098E099F094AE00E94D8038091560526
:1012F000982F9460909356058C600E94DE028FE7D1
:101300009FE422E1815090402040E1F700C00000BE
:10131000809156058B7F8093560588600E94DE027F
:101320008FE79AE126E0815090402040E1F700C02D
:1013300000008981815089838BEF94E00E945406DC
:101340008093FA04882309F47BCF10927F041092D3
:101350007E0488E289838AE090E090933201809352
:10136000310110927B0410927A0481E08093800412
:101370000F90DF91CF911F910F91FF90EF90DF9031
:10138000CF9008951F920F920FB60F9211242F93B2
:101390003F938F939F93AF93BF9380913E0590911E
:1013A0003F05A0914005B091410530913D0526E0F3
:1013B000230F2D3768F129E8230F0396A11DB11DD6
:1013C00020933D0580933E0590933F05A0934005F3
:1013D000B09341058091420590914305A091440549
:1013E000B09145050196A11DB11D809342059093D2
:1013F0004305A0934405B0934505BF91AF919F91DC
:101400008F913F912F910F900FBE0F901F901895C5
:101410000296A11DB11DD4CF1F920F920FB60F924D
:1014200011242F933F934F935F936F937F938F93E9
:101430009F93AF93BF93EF93FF93E0913E01F091A1
:101440003F010995FF91EF91BF91AF919F918F91CE
:101450007F916F915F914F913F912F910F900FBEB0
:101460000F901F9018951F920F920FB60F92112494
:101470002F933F934F935F936F937F938F939F939C
:10148000AF93BF93EF93FF93E0913C01F0913D0147
:101490000995FF91EF91BF91AF919F918F917F91AE
:1014A0006F915F914F913F912F910F900FBE0F90D1
:1014B0001F901895789484B5836084BD85B583604A
:1014C00085BD80916E00816080936E0082E0809384
:1014D00081008091810081608093810080918000F3
:1014E0008160809380008091B10084608093B1001E
:1014F0008091B00081608093B00086E880937A008C
:101500001092C10060E08EE00E945D0160E08FE01B
:101510000E945D0160E086E00E945D0160E087E07E
:101520000E945D0161E080E00E945D0161E083E175
:101530000E945D0161E081E00E945D0161E083E065
:101540000E945D0161E085E00E945D0161E084E050
:101550000E945D0161E086E00E945D0161E080E142
:101560000E945D0190E080E00E94EA0890E0909384
:10157000300180932F01853091053CF020912C01A2
:1015800030912D01281739075CF485E090E09093A5
:10159000300180932F0165E090E080E00E94840696
:1015A00082E090E00E94EA0890E0909379048093B2
:1015B000780402974CF0109279041092780460E05D
:1015C00082E090E00E94840683E090E00E94EA08B6
:1015D00090E09093AB048093AA040A974CF0109289
:1015E000AB041092AA0460E083E090E00E948406BD
:1015F00063E371E084E090E00E94C4082AE037EDE4
:1016000043E25CE3609133017091340180913501D4
:10161000909136010E94991587FF12C080E090E0FA
:10162000A0E8BFE38093330190933401A093350188
:10163000B093360163E371E084E090E00E94860697
:1016400085E090E00E94EA0890E09093D7048093B0
:10165000D6040A974CF01092D7041092D60460E09A
:1016600085E090E00E948406E091D604F091D704D2
:10167000EE0FFF1FE05AFB4FC081D181D0932D01A7
:10168000C0932C0181E090E00E94EA0890E09093E2
:101690007D0480937C04853091051CF0C817D90720
:1016A0004CF4D0937D04C0937C046C2F81E090E0D7
:1016B0000E94840667E371E086E090E00E94C4081F
:1016C0002AE037ED43E25CE3609137017091380125
:1016D0008091390190913A010E94991587FF12C0BB
:1016E00080E090E0A0E8BFE3809337019093380159
:1016F000A0933901B0933A0167E371E086E090E08E
:101700000E9486061092A90410928104109282040D
:1017100010928304109284041092DF041092DE046D
:1017200010927F0410927E048091AA049091AB04E1
:1017300002970CF058C362E082E00E945D0161E014
:1017400086E00E942F0182E00E94EB0260E271E0DD
:1017500080E00E94A20368E171E081E00E94A203A0
:1017600060E171E082E00E94A20368E071E083E042
:101770000E94A20360E071E084E00E94A2030E9444
:10178000E40260E080E00E948D0382E991E00E9423
:101790001C0410922E0510922D058EE090E090937F
:1017A000300580932F0580E090E0A0EAB0E48093BC
:1017B000310590933205A0933305B093340585E04D
:1017C00090E090932605809325058AE090E0909321
:1017D0002805809327058DEC9CECACE4BEE3809358
:1017E000290590932A05A0932B05B0932C05109200
:1017F0003505109236051092370510923805CAE06B
:10180000D0E0812C912C54016AE070E080E090E0FF
:101810000E94E10185E295E00E94F6049B01AC0183
:10182000C501B4010E942D154B015C01219761F7A0
:101830002DEC3CEC44E251E40E949E15609335058A
:1018400070933605809337059093380542E050E059
:101850000E94240485E991E00E941C0483E190E049
:1018600090931905809318058FE090E090931B05E5
:1018700080931A0580E090E0A0EAB0E480931C0514
:1018800090931D05A0931E05B0931F0585E090E081
:1018900090931105809310058AE090E090931305D2
:1018A000809312058DEC9CECACE4BEE380931405B0
:1018B00090931505A0931605B09317051092200577
:1018C000109221051092220510922305CAE0D0E063
:1018D000812C912C54016AE070E080E090E00E943D
:1018E000E10180E195E00E94F6049B01AC01C50195
:1018F000B4010E942D154B015C01219761F72DEC7D
:101900003CEC44E251E40E949E15609320057093E4
:101910002105809322059093230542E050E00E9428
:10192000240461E080E00E948D0389E991E00E9437
:101930001C0481E090E09093EF048093EE0487E034
:1019400090E09093F1048093F00480E090E0A0EAAE
:10195000B0E48093F2049093F304A093F404B09362
:10196000F50485E090E09093E7048093E6048AE034
:1019700090E09093E9048093E8048DEC9CECACE457
:10198000BEE38093EA049093EB04A093EC04B0933D
:10199000ED041092F6041092F7041092F8041092DD
:1019A000F904CAE0D0E0812C912C54016AE070E087
:1019B00080E090E00E94E10186EE94E00E94F6044F
:1019C0009B01AC01C501B4010E942D154B015C01C6
:1019D000219761F72DEC3CEC44E251E40E949E1506
:1019E0006093F6047093F7048093F8049093F904DD
:1019F00042E050E00E9424048CE991E00E941C0423
:101A000083E090E0909304058093030586E090E0E6
:101A1000909306058093050580E090E0A0EAB0E48D
:101A20008093070590930805A0930905B0930A05D4
:101A300085E090E09093FC048093FB048AE090E0C2
:101A40009093FE048093FD048DEC9CECACE4BEE32B
:101A50008093FF0490930005A0930105B0930205C5
:101A600010920B0510920C0510920D0510920E05A8
:101A7000CAE0D0E0812C912C54016AE070E080E053
:101A800090E00E94E1018BEF94E00E94F6049B013C
:101A9000AC01C501B4010E942D154B015C012197D9
:101AA00061F72DEC3CEC44E251E40E949E156093FA
:101AB0000B0570930C0580930D0590930E0542E085
:101AC00050E00E94240468EE73E080E090E00E9401
:101AD000E1010E94E40260E080E00E948D03C0E02A
:101AE000D0E003E112E04AE0E42EF12C8FB7F89445
:101AF00080903E0590903F05A0904005B090410534
:101B00008FBF8092390590923A05A0923B05B09222
:101B10003C058091740490917504A0917604B09175
:101B20007704A5019401281B390B4A0B5B0BDA01E2
:101B3000C9018A3F9105A105B10508F456C08091FD
:101B40008004882369F160E08FE00E948D0380911A
:101B50002A0190912B01843091050CF44CC180E056
:101B60000E94BE0310922B0110922A0180912A013B
:101B700090912B01019690932B0180932A018091E3
:101B80005605982F9460909356058C600E94DE0253
:101B90008092740490927504A0927604B0927704B7
:101BA000A090AA04B090AB0480917804909179043D
:101BB000019709F044C1F2E0AF16B10424F40E9489
:101BC0000B018093A90420917A0430917B048091C9
:101BD0002801909129012817390708F413C11092A0
:101BE000800481E090E00E94EC088091390590919A
:101BF0003A05A0913B05B0913C054091DA04509123
:101C0000DB046091DC047091DD04841B950BA60B52
:101C1000B70B883E9340A105B10508F4BBC081E134
:101C20000E9499018C589109181619060CF01CC1D4
:101C30009093D9048093D8048091D6049091D704CE
:101C4000181619069CF4880F991F880F991FFC011C
:101C5000E255FB4F80819181A281B381809337014E
:101C600090933801A0933901B0933A016091D80460
:101C70007091D904072E000C880B990B0E9448160E
:101C800020913701309138014091390150913A014A
:101C90000E944D1720E030E040E251E40E949E1582
:101CA0000E9410167093AD046093AC048091AA0456
:101CB0009091AB04823091050CF0DBC00E940B01C7
:101CC0008093A9048091E004813009F0DFC2809103
:101CD0002E01833009F4E3C108F03AC1813009F4E0
:101CE00068C1823009F4A0C18091AC049091AD0428
:101CF00020917C0430917D048217930744F0209159
:101D0000E004211102C010923B0110928004209146
:101D10002F0130913001821793071CF481E08093EA
:101D2000800480918004882309F441C580917A045D
:101D300090917B04019690937B0480937A0481E0D8
:101D400080933B0161E085E00E942F0180913B017F
:101D500061E0811101C060E086E00E942F01809166
:101D6000AA049091AB0402972CF01092A90480E091
:101D70000E94C4008091390590913A05A0913B05DD
:101D8000B0913C058093DA049093DB04A093DC04CB
:101D9000B093DD0485E295E00E945406982E80936E
:101DA000240580E195E00E945406A82E80930F053B
:101DB0008BEF94E00E945406B82E8093FA0486EECE
:101DC00094E00E9454068093E504992009F4FAC433
:101DD0009091E4049111F6C481E080933B0185E584
:101DE0000E94B60616C560E082E00E945D0180E0B8
:101DF0000E94C400A4CC845B9E4FFC0180810E94A1
:101E0000BE03B4CE80917A0490917B04059708F4C8
:101E1000ECCE61E084E00E942F018091A904813022
:101E200009F0E3CEAA94AB2809F0DFCE109280042B
:101E30008091E0048111D9CE82E090E0D4CE32E0EE
:101E4000A316B10424F40E940B018093A9042091ED
:101E50007A0430917B048091280190912901281700
:101E6000390708F4C2CEBBCE1092D9041092D80420
:101E7000E3CE893091058CF00E940B01BC01990FD3
:101E8000880B990B0E9448166093330170933401BC
:101E9000809335019093360115CF880F991F880FD5
:101EA000991FFC01EB57FB4F80819181A281B38187
:101EB0008093330190933401A0933501B0933601A0
:101EC000E89810933D0100933C016091A90470E0F3
:101ED00090E080E00E944816209133013091340157
:101EE00040913501509136010E944D1720E030E0BD
:101EF00040E251E40E949E15609381047093820435
:101F0000809383049093840480918004882309F44F
:101F1000D9CE80917E0490917F048A3191052CF076
:101F200082E090E00E94EC08CDCE2091A9042230FE
:101F300030F4019690937F0480937E04C3CE109278
:101F40007F0410927E04F0923201E0923101BACE09
:101F5000843009F40CC1853009F0C6CE0E94E40239
:101F60008091780490917904019709F053C184E736
:101F700092E00E941C0461E08FE00E948D0362E009
:101F800086E495E00E949C0361E080E00E948D035E
:101F900084E992E00E941C048091D6049091D704B9
:101FA0008130910509F040C18CE992E00E941C0447
:101FB0009BCE0E94E40280EA91E00E941C046091A2
:101FC0002F0170913001072E000C880B990B0E9495
:101FD000481620E030E040E251E40E949E1541E0C6
:101FE00050E00E94240461E080E00E948D038CEAAE
:101FF00091E00E941C0460917C0470917D04072E86
:10200000000C880B990B0E94481620E030E040E25B
:1020100051E40E949E1541E050E00E94240461E0DA
:102020008FE00E948D03DCC10E94E40288EB91E006
:102030000E941C0460912F0170913001072E000C4A
:10204000880B990B0E94481620E030E040E251E4F2
:102050000E949E1541E050E00E94240461E080E06F
:102060000E948D0384EC91E00E941C0460917C042A
:1020700070917D04072E000C880B990B0E94481666
:1020800020E030E040E251E40E949E1541E050E043
:102090000E94240461E08FE00E948D039CC10E9495
:1020A000E4028CEA91E00E941C0460917C0470912F
:1020B0007D04072E000C880B990B0E94481620E027
:1020C00030E040E251E40E949E1541E050E00E9461
:1020D000240461E080E00E948D0380ED91E00E9485
:1020E0001C048091AA049091AB048130910529F4DD
:1020F00088ED91E00E941C04CDCF8230910519F447
:1021000081EE91E0F7CF8330910519F48AEE91E0EA
:10211000F1CF8430910519F483EF91E0EBCF853056
:10212000910519F48CEF91E0E5CF8630910519F413
:1021300085E092E0DFCF8730910519F48EE092E0E0
:10214000D9CF8830910519F487E192E0D3CF099770
:1021500029F480E292E00E941C0461CF89E292E0BF
:102160000E941C0461E08FE00E948D0343C10E9425
:10217000E40282E392E00E941C048091AA04909100
:10218000AB048130910589F488ED91E00E941C0434
:1021900061E080E00E948D03809178049091790441
:1021A0000197A9F584E592E0A5CF8230910519F455
:1021B00081EE91E0EBCF8330910519F48AEE91E046
:1021C000E5CF8430910519F483EF91E0DFCF8530BE
:1021D000910519F48AE392E0D9CF8630910519F47C
:1021E00084E492E0D3CF8730910519F48EE092E039
:1021F000CDCF8830910519F487E192E0C7CF0997D8
:1022000019F480E292E0C2CF8CE492E0BFCF84E682
:1022100092E070CF84E892E00E941C0461E08FE0BD
:102220000E948D0361E0ACCE8230910519F485EAFD
:1022300092E0BCCE8330910519F48EEA92E0B6CEDE
:102240008430910519F487EB92E0B0CE853091058A
:1022500019F480EC92E0AACE8630910519F489EC4D
:1022600092E0A4CE8730910519F482ED92E09ECEE3
:102270008830910519F48BED92E098CE099719F406
:1022800084EE92E093CE80E292E090CE823009F02C
:1022900070C180912E01833009F4AEC008F047C0B0
:1022A000813009F45FC0823009F01ECD0E94E40243
:1022B0008CEA91E00E941C0461E080E00E948D03A2
:1022C00081E992E00E941C0460917C0470917D047D
:1022D000072E000C880B990B0E94481620E030E076
:1022E00040E251E40E949E1541E050E00E94240427
:1022F0008DEE92E00E941C0461E08FE00E948D034D
:1023000080917C0490917D0420912F0130913001C7
:102310002F5F3F4F40912C0150912D012817390715
:102320000CF064C0841795070CF05AC054C0843078
:1023300009F4C6C0853009F0D7CC0E94E4028FE5CD
:1023400093E00E941C0461E080E00E948D03809174
:10235000D6049091D7048130910509F0CAC080E776
:1023600093E0C8CE0E94E40288EB91E00E941C0436
:1023700061E080E00E948D0381E992E00E941C04EC
:1023800060912F0170913001072E000C880B990B82
:102390000E94481620E030E040E251E40E949E1581
:1023A00041E050E00E9424048DEE92E00E941C0463
:1023B00061E08FE00E948D0380912F0190913001A8
:1023C00020917C0430917D042150310982179307BC
:1023D00024F406977CF063E004C006970CF484CCE8
:1023E00062E086E495E00E949C037ECC841795070A
:1023F0000CF07ACC61E0F5CF0E94E40283EF92E02A
:102400000E941C0461E080E00E948D038091AA0478
:102410009091AB048130910519F480E093E06ACE8D
:102420008230910519F487E093E064CE8330910502
:1024300019F48DE093E05ECE8430910519F484E1C7
:1024400093E058CE8530910519F48BE193E052CE9C
:102450008630910519F482E293E04CCE87309105E5
:1024600019F489E293E046CE8830910519F481E3AE
:1024700093E040CE099709F589E393E00E941C049C
:102480008090330190903401A0903501B0903601D6
:1024900020E030E040E251E4C501B4010E9499150A
:1024A00042E050E087FD02C041E050E0C501B401C8
:1024B0000E94240483E992E01DCE83E493E050CE91
:1024C0000E94E40288E493E00E941C0461E080E042
:1024D0000E948D038091780490917904009719F4FB
:1024E0008FE493E03DCE019709F0FECB84E593E0C5
:1024F00032CE8230910519F488E793E0FBCD83302A
:10250000910519F480E893E0F5CD8430910519F434
:1025100088E893E0EFCD8530910519F480E993E0E8
:10252000E9CD8630910519F488E993E0E3CD873051
:10253000910519F480EA93E0DDCD8830910519F416
:1025400088EA93E0D7CD099719F480EB93E003CEA6
:1025500088EB93E00E941C04609137017091380170
:102560008091390190913A0142E050E00E942404A8
:10257000F9CD833009F081C080912E01833051F173
:10258000853009F0B1CB0E94E40282EE93E00E9414
:102590001C0461E080E00E948D036091370170911E
:1025A00038018091390190913A0142E050E00E9457
:1025B000240482EF93E00E941C0461E08FE00E94FB
:1025C0008D038090370190903801A0903901B09030
:1025D0003A0134C00E94E40283EC93E00E941C04A0
:1025E00061E080E00E948D0380903301909034017F
:1025F000A0903501B090360120E030E040E251E497
:10260000C501B4010E94991542E050E087FD02C067
:1026100041E050E0C501B4010E94240483ED93E041
:102620000E941C0461E08FE00E948D0380903301C2
:1026300090903401A0903501B090360120E030E058
:10264000A901C501B4010E94F81618165CF420E037
:1026500030E040E251E4C501B4010E94991587FFC2
:10266000BFCEB9CE20E030E0A901C501B4010E947F
:102670009915882309F4BECEB3CE0E94E40260E02F
:1026800080E00E948D038091AA049091AB04209178
:102690007804309179042130310509F068C01816AA
:1026A00019060CF071C0019709F049C08091A90486
:1026B000811167C0809180048823F1F18DEF93E050
:1026C0000E941C0480917A0490917B04892B31F044
:1026D00080917A0490917B040E941E0461E080E066
:1026E0000E948D038EE494E00E941C046091AC046F
:1026F0007091AD04072E000C880B990B0E944816B0
:1027000020E030E040E251E40E949E1541E050E0BC
:102710000E94240486E594E00E941C048091DE045B
:102720009091DF04853091050CF0DECA01969093FC
:10273000DF048093DE04D8CA89E094E0C1CF81E24F
:1027400094E00E941C046091810470918204809145
:1027500083049091840441E050E00E94240488E2C4
:1027600094E00E941C04BACF8EE394E0FACF1816CE
:10277000190654F4019719F78091A904882309F4E4
:10278000A1CF85E194E09CCF80917A0490917B0465
:10279000892B51F381E394E00E941C0480917A0418
:1027A00090917B040E941E0489E394E0DACF10929A
:1027B0007B0410927A0460E085E00E942F0160E0C3
:1027C00084E0C2CAAA2049F09091E304911105C0A7
:1027D00081E080933B0184E403CBBB2049F09091DE
:1027E000E204911105C081E080933B0182E4F8CAC4
:1027F0009091E004882341F18091E10481112FC080
:1028000091111DC01092DF041092DE0481E08093CC
:102810003B01809124058093E40480910F0580930F
:10282000E3048091FA048093E2048091E5048093AC
:10283000E104209709F45AC90E94000057C981E0B9
:1028400080933B0185E4CCCA9111E3CF8091E104F0
:102850008823F9F21092DF041092DE04DACF91118E
:10286000D8CF8091DE049091DF04049794F2109207
:10287000DF041092DE04E6CF80912C0190912D01AF
:1028800090937D0480937C04EEEAF4E08DEC9CEC64
:10289000ACE8BFE380839183A283B38347ED53EA1F
:1028A00060E37FE344835583668377834FE852EC8C
:1028B00065E77FE3408751876287738784879587C1
:1028C000A687B78789E29CE5AFEABFE3808B918B4F
:1028D000A28BB38B83E393E3A3EDBFE3848B958B50
:1028E000A68BB78B8AE097EDA3E0B0E4808F918F41
:1028F000A28FB38F80E090E0A0E3B0E4848F958F47
:10290000A68FB78F86EF98E2A4E8B0E480A391A3E6
:10291000A2A3B3A380E090E0A0EBB0E484A395A3CE
:10292000A6A3B7A3E0E6F4E080E590E0918380837E
:1029300022E330E03383228326E430E035832483AE
:102940009783868384E690E09187808788E790E08C
:102950009387828786E990E09587848788EC90E06A
:10296000978786878CE291E0918B808B80E991E05C
:10297000938B828BE5E8F4E010821182128213823D
:1029800014821582168217828FE195E8ABE1B1E4DB
:1029900080879187A287B38787ED93EAAAEBB1E49A
:1029A00084879587A687B787808B918BA28BB38B03
:1029B00080E090E0A2E5B2E4848B958BA68BB78B88
:1029C00080E090E0A0EEBFE3808F918FA28FB38F65
:1029D0008EEA97E4A1EEBDE3848F958FA68FB78F23
:1029E00083E393E3A3EBBFE380A391A3A2A3B3A3E9
:1029F000E6E4F5E01382128284E491E0918380831F
:102A00008CE084838FEF85838BE086838AE08783E5
:102A100089E0808788E0818787E082871386148633
:102A200015861686178681E00C94EB02F999FECF85
:102A300092BD81BDF89A992780B50895262FF999FE
:102A4000FECF1FBA92BD81BD20BD0FB6F894FA9A91
:102A5000F99A0FBE019608955058BB27AA270E94E5
:102A600044150C94BE160E94B01638F00E94B7169A
:102A700020F039F49F3F19F426F40C94AD160EF4AF
:102A8000E095E7FB0C94A716E92F0E94CF1658F3A8
:102A9000BA17620773078407950720F079F4A6F543
:102AA0000C94F1160EF4E0950B2EBA2FA02D0B010D
:102AB000B90190010C01CA01A0011124FF27591B83
:102AC00099F0593F50F4503E68F11A16F040A22F89
:102AD000232F342F4427585FF3CF469537952795FA
:102AE000A795F0405395C9F77EF41F16BA0B620BF9
:102AF000730B840BBAF09150A1F0FF0FBB1F661F40
:102B0000771F881FC2F70EC0BA0F621F731F841F82
:102B100048F4879577956795B795F7959E3F08F0A8
:102B2000B0CF9395880F08F09927EE0F979587956A
:102B300008950E94831608F481E008950E94B2155A
:102B40000C94BE160E94B71658F00E94B01640F0C2
:102B500029F45F3F29F00C94A71651110C94F2163A
:102B60000C94AD160E94CF1668F39923B1F3552348
:102B700091F3951B550BBB27AA2762177307840790
:102B800038F09F5F5F4F220F331F441FAA1FA9F326
:102B900035D00E2E3AF0E0E832D091505040E69514
:102BA000001CCAF72BD0FE2F29D0660F771F881F75
:102BB000BB1F261737074807AB07B0E809F0BB0B68
:102BC000802DBF01FF2793585F4F3AF09E3F51057C
:102BD00078F00C94A7160C94F2165F3FE4F3983E3D
:102BE000D4F3869577956795B795F7959F5FC9F765
:102BF000880F911D9695879597F90895E1E0660FE6
:102C0000771F881FBB1F621773078407BA0720F05E
:102C1000621B730B840BBA0BEE1F88F7E0950895C7
:102C20000E9417166894B1110C94F21608950E9430
:102C3000D71688F09F5798F0B92F9927B751B0F061
:102C4000E1F0660F771F881F991F1AF0BA95C9F730
:102C500014C0B13091F00E94F116B1E008950C94C7
:102C6000F116672F782F8827B85F39F0B93FCCF37A
:102C7000869577956795B395D9F73EF490958095AD
:102C8000709561957F4F8F4F9F4F0895E89409C0CD
:102C900097FB3EF490958095709561957F4F8F4F8F
:102CA0009F4F9923A9F0F92F96E9BB279395F695A5
:102CB000879577956795B795F111F8CFFAF4BB0F23
:102CC00011F460FF1BC06F5F7F4F8F4F9F4F16C087
:102CD000882311F096E911C0772321F09EE8872F11
:102CE000762F05C0662371F096E8862F70E060E0CD
:102CF0002AF09A95660F771F881FDAF7880F969546
:102D0000879597F90895990F0008550FAA0BE0E8E9
:102D1000FEEF16161706E807F907C0F0121613069D
:102D2000E407F50798F0621B730B840B950B39F4DD
:102D30000A2661F0232B242B252B21F408950A2643
:102D400009F4A140A6958FEF811D811D089597F983
:102D50009F6780E870E060E008959FEF80EC089541
:102D600000240A941616170618060906089500246A
:102D70000A9412161306140605060895092E0394E4
:102D8000000C11F4882352F0BB0F40F4BF2B11F458
:102D900060FF04C06F5F7F4F8F4F9F4F089557FDB7
:102DA0009058440F551F59F05F3F71F04795880FB9
:102DB00097FB991F61F09F3F79F087950895121650
:102DC00013061406551FF2CF4695F1DF08C01616FC
:102DD00017061806991FF1CF8695710561050894AD
:102DE0000895E894BB2766277727CB0197F90895C4
:102DF0000E94831608F48FEF089516F00C94BF1705
:102E00000C94AD1668940C94A7160E94D716A8F3DC
:102E10009923C1F3AEF3DF93CF931F930F93FF92E8
:102E2000C92FDD2788232AF02197660F771F881F77
:102E3000DAF720E030E040E85FEB9FE3883920F0EC
:102E4000803E38F021968F770E942D15E8E6F0E05D
:102E500004C00E942D15E5E9F0E00E94CD178B011A
:102E6000BE01EC01FB2E6F5771097595771F880B1A
:102E7000990B0E94481628E132E741E35FE30E9484
:102E80006017AF2D9801AE01FF900F911F91CF9168
:102E9000DF910E9444150C94BE160E9460170C949A
:102EA000BE160E94B01638F00E94B71620F0952387
:102EB00011F00C94A7160C94AD1611240C94F21674
:102EC0000E94CF1670F3959FC1F3950F50E0551FE8
:102ED000629FF001729FBB27F00DB11D639FAA276F
:102EE000F00DB11DAA1F649F6627B00DA11D661FBE
:102EF000829F2227B00DA11D621F739FB00DA11DDF
:102F0000621F839FA00D611D221F749F3327A00D98
:102F1000611D231F849F600D211D822F762F6A2F34
:102F200011249F5750409AF0F1F088234AF0EE0F99
:102F3000FF1FBB1F661F771F881F91505040A9F7C6
:102F40009E3F510580F00C94A7160C94F2165F3F3B
:102F5000E4F3983ED4F3869577956795B795F79502
:102F6000E7959F5FC1F7FE2B880F911D969587957A
:102F700097F908950E948316880B990B08959F3F37
:102F800031F0915020F4879577956795B795880F24
:102F9000911D9695879597F90895DF93CF931F9389
:102FA0000F93FF92EF92DF927B018C01689406C031
:102FB000DA2EEF010E946017FE01E894A591259199
:102FC000359145915591A6F3EF010E944415FE01FC
:102FD0009701A801DA9469F7DF90EF90FF900F91C5
:102FE0001F91CF91DF910895A1E21A2EAA1BBB1B5E
:102FF000FD010DC0AA1FBB1FEE1FFF1FA217B307C5
:10300000E407F50720F0A21BB30BE40BF50B661FDA
:10301000771F881F991F1A9469F76095709580959E
:1030200090959B01AC01BD01CF010895EE0FFF1FEC
:103030000590F491E02D0994F894FFCF10181C1E10
:103040001C181000040E1F00001F0E0400000000DA
:10305000001F0E04040E1F000000000000100804F2
:10306000020100008403010050000105000A000075
:1030700000803F6666A63F011302000000000000CA
:103080009C031402C803C703207C2F2D006E616EC1
:1030900000696E66006F7666002120414C41524DFA
:1030A0002021200052756E206F76657220002073FB
:1030B0006563002120414C41524D2021004D6F7429
:1030C0006F72204F4E206E6F20666C757800553AF7
:1030D0000020443A00453A0020423A003E4D696ED5
:1030E0002070726573733A00204D617820707265AC
:1030F00073733A00204D696E2070726573733A00E5
:103100003E4D61782070726573733A003E46736578
:103110006E3A200053776974636820200059462D69
:103120004231202020005946444E3332202000599D
:1031300046444E34302020005946444E353020203D
:103140000046533330304120200059462D5334304F
:1031500031200059462D53323031200043757374AD
:103160006F6D2020004E6F6E6520202020002046CD
:1031700073656E3A20005946444E353020202000B9
:1031800046533330304120004E6F6E6520202000C2
:103190003E4D6F646520636F6D70726573732000C0
:1031A0003E4D6F64652070756D70202020202000DA
:1031B000204D6F646520636F6D70726573732000BE
:1031C000204D6F64652070756D70202020202000D8
:1031D0003E5073656E3A20003530304B70612020D0
:1031E000003730304B70612020003830304B706138
:1031F000202000314D70612020202000312E324DE2
:103200007061202000312E354D7061202000324D3C
:1032100070612020202000334D706120202020008C
:10322000344D706120202020002020626172004611
:103230006C75782053656E736F723A0053776974BA
:1032400063680059462D4231005946444E333200DE
:103250005946444E3430005946444E3530004653AA
:10326000333030410059462D533430310059462D0A
:1032700053323031003E20437573746F6D20004E21
:103280006F6E6500204D6F64653A0050756D70007B
:10329000436F6D70726573736F72005072657373F4
:1032A0007572652073656E736F723A003530302029
:1032B0004B706100373030204B7061003830302067
:1032C0004B706100312E30204D706100312E322064
:1032D0004D706100312E35204D706100322E30204E
:1032E0004D706100332E30204D706100342E30203F
:1032F0004D7061003E20437573746F6D3A2000532A
:1033000065742070756C736520726174652000208F
:103310004B2028766F6C2F70756C73652900507286
:1033200065737375726520666163746F7200204205
:1033300061722F566F6C747300466C6F773A205928
:103340004553202000526566696C6C206F696C21C2
:1033500000466C6F773A204E4F20202000466C6F5D
:10336000773A2000204C2F6D20202020004F4E2047
:10337000666F722000732020200020205052455399
:1033800053464C4F57696E6F200050726573733A05
:0C3390002000206261722020202000003C
:107E8000112424B614BE80E079D021FEEBC08EE030
:107E900075D0E0ECF0E0AFE7BFEF4899FECF9096E9
:107EA000489BFDCFB4831197F1F7B2E0B083B8E1FE
:107EB000B18352D0C82F823569F466D0E0E0FEE786
:107EC000A89583E093D091D0E058F109C8F787E7EF
:107ED0003CD0EFCF8D7FD9F44CD0D82FA0E0B1E0CB
:107EE0003BD08D93DA13FCCFA0E0B1E04DD0C111AF
:107EF0000CC0F2BDE1BD8D9180BDFA9AF99A319620
:107F0000F999FECFD150A9F7E2CF48D0E0CFC330E6
:107F100041F42FD0C82F38D0859117D0C150E1F748
:107F2000D6CFC13061F425D0C82F2ED0F2BDE1BD2F
:107F3000F89A80B50AD03196C150C1F7C8CFC13583
:107F400011F488E01BD020D0C2CF9091C00095FFE3
:107F5000FCCF8093C60008952D9A259A8091C00089
:107F600087FFFCCF84FD13C0A8958091C6002D9893
:107F70000895F2DFE82FF0DFF82FEECF98E190932D
:107F80006000809360000895E7DF803219F088E098
:107F9000F5DFFFCF80EAD9CFFB01DC01E07870E8A4
:107FA0007A0F9F01E0388EE7F80728F5309629F41C
:107FB0008FE38D938FEC8C93119790E045915D91B9
:107FC00045139160A713FACFF901A058B10990FFAA
:107FD00012C083E00BD081E00D901D9007D0329647
:107FE000A713FACFF90185E001D081E187BFE895B9
:107FF00017B610FCFDCF112408950319CDCFE7402B
:00000001FF
